{
  "_format": "hh-sol-artifact-1",
  "contractName": "Vamps",
  "sourceName": "contracts/Vamps.sol",
  "abi": [
    {
      "inputs": [
        {
          "internalType": "contract IToken",
          "name": "_pXenToken",
          "type": "address"
        },
        {
          "internalType": "string",
          "name": "_baseURI",
          "type": "string"
        },
        {
          "internalType": "address",
          "name": "_wallet",
          "type": "address"
        }
      ],
      "stateMutability": "nonpayable",
      "type": "constructor"
    },
    {
      "inputs": [],
      "name": "AccountBalanceOverflow",
      "type": "error"
    },
    {
      "inputs": [],
      "name": "BalanceQueryForZeroAddress",
      "type": "error"
    },
    {
      "inputs": [],
      "name": "ContractsCannotMint",
      "type": "error"
    },
    {
      "inputs": [],
      "name": "MustMintAtLeastOneToken",
      "type": "error"
    },
    {
      "inputs": [],
      "name": "NotEnoughAvailableTokens",
      "type": "error"
    },
    {
      "inputs": [],
      "name": "NotOwnerNorApproved",
      "type": "error"
    },
    {
      "inputs": [],
      "name": "TokenAlreadyExists",
      "type": "error"
    },
    {
      "inputs": [],
      "name": "TokenDoesNotExist",
      "type": "error"
    },
    {
      "inputs": [],
      "name": "TransferFromIncorrectOwner",
      "type": "error"
    },
    {
      "inputs": [],
      "name": "TransferToNonERC721ReceiverImplementer",
      "type": "error"
    },
    {
      "inputs": [],
      "name": "TransferToZeroAddress",
      "type": "error"
    },
    {
      "inputs": [],
      "name": "Vamp_MintingNotStarted",
      "type": "error"
    },
    {
      "inputs": [
        {
          "internalType": "address",
          "name": "minter",
          "type": "address"
        }
      ],
      "name": "Vamps_MaxMintLimitReached",
      "type": "error"
    },
    {
      "inputs": [
        {
          "internalType": "address",
          "name": "who",
          "type": "address"
        }
      ],
      "name": "Vamps_NotEOA",
      "type": "error"
    },
    {
      "inputs": [],
      "name": "Vamps_NotPXenToken",
      "type": "error"
    },
    {
      "inputs": [
        {
          "internalType": "uint256",
          "name": "id",
          "type": "uint256"
        }
      ],
      "name": "Vamps_TokenNotExist",
      "type": "error"
    },
    {
      "inputs": [],
      "name": "Vamps_TransferedFailed",
      "type": "error"
    },
    {
      "inputs": [
        {
          "internalType": "uint256",
          "name": "amount",
          "type": "uint256"
        }
      ],
      "name": "Vamps__IncorrectPayment",
      "type": "error"
    },
    {
      "anonymous": false,
      "inputs": [
        {
          "indexed": true,
          "internalType": "address",
          "name": "owner",
          "type": "address"
        },
        {
          "indexed": true,
          "internalType": "address",
          "name": "account",
          "type": "address"
        },
        {
          "indexed": true,
          "internalType": "uint256",
          "name": "id",
          "type": "uint256"
        }
      ],
      "name": "Approval",
      "type": "event"
    },
    {
      "anonymous": false,
      "inputs": [
        {
          "indexed": true,
          "internalType": "address",
          "name": "owner",
          "type": "address"
        },
        {
          "indexed": true,
          "internalType": "address",
          "name": "operator",
          "type": "address"
        },
        {
          "indexed": false,
          "internalType": "bool",
          "name": "isApproved",
          "type": "bool"
        }
      ],
      "name": "ApprovalForAll",
      "type": "event"
    },
    {
      "anonymous": false,
      "inputs": [
        {
          "indexed": true,
          "internalType": "address",
          "name": "previousOwner",
          "type": "address"
        },
        {
          "indexed": true,
          "internalType": "address",
          "name": "newOwner",
          "type": "address"
        }
      ],
      "name": "OwnershipTransferred",
      "type": "event"
    },
    {
      "anonymous": false,
      "inputs": [
        {
          "indexed": true,
          "internalType": "address",
          "name": "user",
          "type": "address"
        },
        {
          "indexed": true,
          "internalType": "address",
          "name": "xenContract",
          "type": "address"
        },
        {
          "indexed": true,
          "internalType": "address",
          "name": "tokenContract",
          "type": "address"
        },
        {
          "indexed": false,
          "internalType": "uint256",
          "name": "xenAmount",
          "type": "uint256"
        },
        {
          "indexed": false,
          "internalType": "uint256",
          "name": "tokenAmount",
          "type": "uint256"
        }
      ],
      "name": "Redeemed",
      "type": "event"
    },
    {
      "anonymous": false,
      "inputs": [
        {
          "indexed": true,
          "internalType": "address",
          "name": "from",
          "type": "address"
        },
        {
          "indexed": true,
          "internalType": "address",
          "name": "to",
          "type": "address"
        },
        {
          "indexed": true,
          "internalType": "uint256",
          "name": "id",
          "type": "uint256"
        }
      ],
      "name": "Transfer",
      "type": "event"
    },
    {
      "inputs": [
        {
          "internalType": "address",
          "name": "account",
          "type": "address"
        },
        {
          "internalType": "uint256",
          "name": "id",
          "type": "uint256"
        }
      ],
      "name": "approve",
      "outputs": [],
      "stateMutability": "payable",
      "type": "function"
    },
    {
      "inputs": [
        {
          "internalType": "address",
          "name": "owner",
          "type": "address"
        }
      ],
      "name": "balanceOf",
      "outputs": [
        {
          "internalType": "uint256",
          "name": "result",
          "type": "uint256"
        }
      ],
      "stateMutability": "view",
      "type": "function"
    },
    {
      "inputs": [
        {
          "internalType": "uint256",
          "name": "id",
          "type": "uint256"
        }
      ],
      "name": "getApproved",
      "outputs": [
        {
          "internalType": "address",
          "name": "result",
          "type": "address"
        }
      ],
      "stateMutability": "view",
      "type": "function"
    },
    {
      "inputs": [],
      "name": "getCounter",
      "outputs": [
        {
          "internalType": "uint256",
          "name": "",
          "type": "uint256"
        }
      ],
      "stateMutability": "view",
      "type": "function"
    },
    {
      "inputs": [],
      "name": "getMintLimit",
      "outputs": [
        {
          "internalType": "uint256",
          "name": "",
          "type": "uint256"
        }
      ],
      "stateMutability": "view",
      "type": "function"
    },
    {
      "inputs": [
        {
          "internalType": "address",
          "name": "_minter",
          "type": "address"
        }
      ],
      "name": "getMintedAmoutByMinter",
      "outputs": [
        {
          "internalType": "uint256",
          "name": "",
          "type": "uint256"
        }
      ],
      "stateMutability": "view",
      "type": "function"
    },
    {
      "inputs": [],
      "name": "getPrice",
      "outputs": [
        {
          "internalType": "uint256",
          "name": "",
          "type": "uint256"
        }
      ],
      "stateMutability": "view",
      "type": "function"
    },
    {
      "inputs": [],
      "name": "getPxenToBurnAmount",
      "outputs": [
        {
          "internalType": "uint256",
          "name": "",
          "type": "uint256"
        }
      ],
      "stateMutability": "view",
      "type": "function"
    },
    {
      "inputs": [
        {
          "internalType": "address",
          "name": "owner",
          "type": "address"
        },
        {
          "internalType": "address",
          "name": "operator",
          "type": "address"
        }
      ],
      "name": "isApprovedForAll",
      "outputs": [
        {
          "internalType": "bool",
          "name": "result",
          "type": "bool"
        }
      ],
      "stateMutability": "view",
      "type": "function"
    },
    {
      "inputs": [],
      "name": "isStarted",
      "outputs": [
        {
          "internalType": "bool",
          "name": "",
          "type": "bool"
        }
      ],
      "stateMutability": "view",
      "type": "function"
    },
    {
      "inputs": [],
      "name": "maxSupply",
      "outputs": [
        {
          "internalType": "uint256",
          "name": "",
          "type": "uint256"
        }
      ],
      "stateMutability": "view",
      "type": "function"
    },
    {
      "inputs": [],
      "name": "mint",
      "outputs": [],
      "stateMutability": "payable",
      "type": "function"
    },
    {
      "inputs": [],
      "name": "name",
      "outputs": [
        {
          "internalType": "string",
          "name": "",
          "type": "string"
        }
      ],
      "stateMutability": "view",
      "type": "function"
    },
    {
      "inputs": [
        {
          "internalType": "address",
          "name": "minter",
          "type": "address"
        }
      ],
      "name": "numberMinted",
      "outputs": [
        {
          "internalType": "uint32",
          "name": "",
          "type": "uint32"
        }
      ],
      "stateMutability": "view",
      "type": "function"
    },
    {
      "inputs": [
        {
          "internalType": "address",
          "name": "user",
          "type": "address"
        },
        {
          "internalType": "uint256",
          "name": "amount",
          "type": "uint256"
        }
      ],
      "name": "onTokenBurned",
      "outputs": [],
      "stateMutability": "nonpayable",
      "type": "function"
    },
    {
      "inputs": [],
      "name": "owner",
      "outputs": [
        {
          "internalType": "address",
          "name": "",
          "type": "address"
        }
      ],
      "stateMutability": "view",
      "type": "function"
    },
    {
      "inputs": [
        {
          "internalType": "uint256",
          "name": "id",
          "type": "uint256"
        }
      ],
      "name": "ownerOf",
      "outputs": [
        {
          "internalType": "address",
          "name": "result",
          "type": "address"
        }
      ],
      "stateMutability": "view",
      "type": "function"
    },
    {
      "inputs": [],
      "name": "remainingSupply",
      "outputs": [
        {
          "internalType": "uint256",
          "name": "",
          "type": "uint256"
        }
      ],
      "stateMutability": "view",
      "type": "function"
    },
    {
      "inputs": [],
      "name": "renounceOwnership",
      "outputs": [],
      "stateMutability": "nonpayable",
      "type": "function"
    },
    {
      "inputs": [
        {
          "internalType": "uint256",
          "name": "tokenId",
          "type": "uint256"
        },
        {
          "internalType": "uint256",
          "name": "salePrice",
          "type": "uint256"
        }
      ],
      "name": "royaltyInfo",
      "outputs": [
        {
          "internalType": "address",
          "name": "",
          "type": "address"
        },
        {
          "internalType": "uint256",
          "name": "",
          "type": "uint256"
        }
      ],
      "stateMutability": "view",
      "type": "function"
    },
    {
      "inputs": [
        {
          "internalType": "address",
          "name": "from",
          "type": "address"
        },
        {
          "internalType": "address",
          "name": "to",
          "type": "address"
        },
        {
          "internalType": "uint256",
          "name": "id",
          "type": "uint256"
        }
      ],
      "name": "safeTransferFrom",
      "outputs": [],
      "stateMutability": "payable",
      "type": "function"
    },
    {
      "inputs": [
        {
          "internalType": "address",
          "name": "from",
          "type": "address"
        },
        {
          "internalType": "address",
          "name": "to",
          "type": "address"
        },
        {
          "internalType": "uint256",
          "name": "id",
          "type": "uint256"
        },
        {
          "internalType": "bytes",
          "name": "data",
          "type": "bytes"
        }
      ],
      "name": "safeTransferFrom",
      "outputs": [],
      "stateMutability": "payable",
      "type": "function"
    },
    {
      "inputs": [
        {
          "internalType": "address",
          "name": "operator",
          "type": "address"
        },
        {
          "internalType": "bool",
          "name": "isApproved",
          "type": "bool"
        }
      ],
      "name": "setApprovalForAll",
      "outputs": [],
      "stateMutability": "nonpayable",
      "type": "function"
    },
    {
      "inputs": [],
      "name": "startMinting",
      "outputs": [],
      "stateMutability": "nonpayable",
      "type": "function"
    },
    {
      "inputs": [
        {
          "internalType": "bytes4",
          "name": "interfaceId",
          "type": "bytes4"
        }
      ],
      "name": "supportsInterface",
      "outputs": [
        {
          "internalType": "bool",
          "name": "",
          "type": "bool"
        }
      ],
      "stateMutability": "view",
      "type": "function"
    },
    {
      "inputs": [],
      "name": "symbol",
      "outputs": [
        {
          "internalType": "string",
          "name": "",
          "type": "string"
        }
      ],
      "stateMutability": "view",
      "type": "function"
    },
    {
      "inputs": [
        {
          "internalType": "uint256",
          "name": "id",
          "type": "uint256"
        }
      ],
      "name": "tokenURI",
      "outputs": [
        {
          "internalType": "string",
          "name": "",
          "type": "string"
        }
      ],
      "stateMutability": "view",
      "type": "function"
    },
    {
      "inputs": [],
      "name": "totalSupply",
      "outputs": [
        {
          "internalType": "uint256",
          "name": "",
          "type": "uint256"
        }
      ],
      "stateMutability": "view",
      "type": "function"
    },
    {
      "inputs": [
        {
          "internalType": "address",
          "name": "from",
          "type": "address"
        },
        {
          "internalType": "address",
          "name": "to",
          "type": "address"
        },
        {
          "internalType": "uint256",
          "name": "id",
          "type": "uint256"
        }
      ],
      "name": "transferFrom",
      "outputs": [],
      "stateMutability": "payable",
      "type": "function"
    },
    {
      "inputs": [
        {
          "internalType": "address",
          "name": "newOwner",
          "type": "address"
        }
      ],
      "name": "transferOwnership",
      "outputs": [],
      "stateMutability": "nonpayable",
      "type": "function"
    },
    {
      "inputs": [],
      "name": "withdraw",
      "outputs": [],
      "stateMutability": "nonpayable",
      "type": "function"
    }
  ],
  "bytecode": "0x61012060405234801562000011575f80fd5b50604051620036ae380380620036ae833981810160405281019062000037919062000667565b6040518060400160405280600581526020017f56616d70730000000000000000000000000000000000000000000000000000008152506040518060400160405280600481526020017f564d5058000000000000000000000000000000000000000000000000000000008152506103e8825f9081620000b6919062000916565b508160019081620000c8919062000916565b50806080818152505080600381905550505050600160068190555062000103620000f7620001ce60201b60201c565b620001d560201b60201c565b8273ffffffffffffffffffffffffffffffffffffffff1660a08173ffffffffffffffffffffffffffffffffffffffff1681525050816009908162000148919062000916565b50670de0b6b3a764000060e08181525050600361010081815250505f600760146101000a81548160ff0219169083151502179055508073ffffffffffffffffffffffffffffffffffffffff1660c08173ffffffffffffffffffffffffffffffffffffffff1681525050620001c5306103e86200029860201b60201c565b50505062000b0c565b5f33905090565b5f60075f9054906101000a900473ffffffffffffffffffffffffffffffffffffffff1690508160075f6101000a81548173ffffffffffffffffffffffffffffffffffffffff021916908373ffffffffffffffffffffffffffffffffffffffff1602179055508173ffffffffffffffffffffffffffffffffffffffff168173ffffffffffffffffffffffffffffffffffffffff167f8be0079c531659141344cd1fd0a4f28419497f9722a3daafe3b4186f6b6457e060405160405180910390a35050565b620002a86200043660201b60201c565b6bffffffffffffffffffffffff16816bffffffffffffffffffffffff16111562000309576040517f08c379a0000000000000000000000000000000000000000000000000000000008152600401620003009062000a7e565b60405180910390fd5b5f73ffffffffffffffffffffffffffffffffffffffff168273ffffffffffffffffffffffffffffffffffffffff16036200037a576040517f08c379a0000000000000000000000000000000000000000000000000000000008152600401620003719062000aec565b60405180910390fd5b60405180604001604052808373ffffffffffffffffffffffffffffffffffffffff168152602001826bffffffffffffffffffffffff1681525060045f820151815f015f6101000a81548173ffffffffffffffffffffffffffffffffffffffff021916908373ffffffffffffffffffffffffffffffffffffffff1602179055506020820151815f0160146101000a8154816bffffffffffffffffffffffff02191690836bffffffffffffffffffffffff1602179055509050505050565b5f612710905090565b5f604051905090565b5f80fd5b5f80fd5b5f73ffffffffffffffffffffffffffffffffffffffff82169050919050565b5f6200047b8262000450565b9050919050565b5f6200048e826200046f565b9050919050565b620004a08162000482565b8114620004ab575f80fd5b50565b5f81519050620004be8162000495565b92915050565b5f80fd5b5f80fd5b5f601f19601f8301169050919050565b7f4e487b71000000000000000000000000000000000000000000000000000000005f52604160045260245ffd5b6200051482620004cc565b810181811067ffffffffffffffff82111715620005365762000535620004dc565b5b80604052505050565b5f6200054a6200043f565b905062000558828262000509565b919050565b5f67ffffffffffffffff8211156200057a5762000579620004dc565b5b6200058582620004cc565b9050602081019050919050565b5f5b83811015620005b157808201518184015260208101905062000594565b5f8484015250505050565b5f620005d2620005cc846200055d565b6200053f565b905082815260208101848484011115620005f157620005f0620004c8565b5b620005fe84828562000592565b509392505050565b5f82601f8301126200061d576200061c620004c4565b5b81516200062f848260208601620005bc565b91505092915050565b62000643816200046f565b81146200064e575f80fd5b50565b5f81519050620006618162000638565b92915050565b5f805f6060848603121562000681576200068062000448565b5b5f6200069086828701620004ae565b935050602084015167ffffffffffffffff811115620006b457620006b36200044c565b5b620006c28682870162000606565b9250506040620006d58682870162000651565b9150509250925092565b5f81519050919050565b7f4e487b71000000000000000000000000000000000000000000000000000000005f52602260045260245ffd5b5f60028204905060018216806200072e57607f821691505b602082108103620007445762000743620006e9565b5b50919050565b5f819050815f5260205f209050919050565b5f6020601f8301049050919050565b5f82821b905092915050565b5f60088302620007a87fffffffffffffffffffffffffffffffffffffffffffffffffffffffffffffffff826200076b565b620007b486836200076b565b95508019841693508086168417925050509392505050565b5f819050919050565b5f819050919050565b5f620007fe620007f8620007f284620007cc565b620007d5565b620007cc565b9050919050565b5f819050919050565b6200081983620007de565b62000831620008288262000805565b84845462000777565b825550505050565b5f90565b6200084762000839565b620008548184846200080e565b505050565b5b818110156200087b576200086f5f826200083d565b6001810190506200085a565b5050565b601f821115620008ca5762000894816200074a565b6200089f846200075c565b81016020851015620008af578190505b620008c7620008be856200075c565b83018262000859565b50505b505050565b5f82821c905092915050565b5f620008ec5f1984600802620008cf565b1980831691505092915050565b5f620009068383620008db565b9150826002028217905092915050565b6200092182620006df565b67ffffffffffffffff8111156200093d576200093c620004dc565b5b62000949825462000716565b620009568282856200087f565b5f60209050601f8311600181146200098c575f841562000977578287015190505b620009838582620008f9565b865550620009f2565b601f1984166200099c866200074a565b5f5b82811015620009c5578489015182556001820191506020850194506020810190506200099e565b86831015620009e55784890151620009e1601f891682620008db565b8355505b6001600288020188555050505b505050505050565b5f82825260208201905092915050565b7f455243323938313a20726f79616c7479206665652077696c6c206578636565645f8201527f2073616c65507269636500000000000000000000000000000000000000000000602082015250565b5f62000a66602a83620009fa565b915062000a738262000a0a565b604082019050919050565b5f6020820190508181035f83015262000a978162000a58565b9050919050565b7f455243323938313a20696e76616c6964207265636569766572000000000000005f82015250565b5f62000ad4601983620009fa565b915062000ae18262000a9e565b602082019050919050565b5f6020820190508181035f83015262000b058162000ac6565b9050919050565b60805160a05160c05160e05161010051612b4862000b665f395f6111f301525f81816109d101526113a401525f610bbc01525f8181610b21015281816110b4015261115001525f8181610c89015261152c0152612b485ff3fe6080604052600436106101d7575f3560e01c80636cffafdd11610101578063a22cb46511610094578063da0239a611610063578063da0239a614610630578063dc33e6811461065a578063e985e9c514610696578063f2fde38b146106d2576101d7565b8063a22cb46514610586578063b88d4fde146105ae578063c87b56dd146105ca578063d5abeb0114610606576101d7565b80638da5cb5b116100d05780638da5cb5b146104f257806395d89b411461051c57806398d5fdca146105465780639a65ea2614610570576101d7565b80636cffafdd1461043a57806370a0823114610476578063715018a6146104b25780638ada066e146104c8576101d7565b806323b872dd11610179578063543746b111610148578063543746b114610382578063544736e6146103aa57806356bda4a2146103d45780636352211e146103fe576101d7565b806323b872dd146102f75780632a55205a146103135780633ccfd60b1461035057806342842e0e14610366576101d7565b8063095ea7b3116101b5578063095ea7b31461027d57806311588563146102995780631249c58b146102c357806318160ddd146102cd576101d7565b806301ffc9a7146101db57806306fdde0314610217578063081812fc14610241575b5f80fd5b3480156101e6575f80fd5b5061020160048036038101906101fc91906120b3565b6106fa565b60405161020e91906120f8565b60405180910390f35b348015610222575f80fd5b5061022b6107c2565b604051610238919061219b565b60405180910390f35b34801561024c575f80fd5b50610267600480360381019061026291906121ee565b610851565b6040516102749190612258565b60405180910390f35b6102976004803603810190610292919061229b565b6108a7565b005b3480156102a4575f80fd5b506102ad6108b6565b6040516102ba91906122e8565b60405180910390f35b6102cb610911565b005b3480156102d8575f80fd5b506102e1610c83565b6040516102ee91906122e8565b60405180910390f35b610311600480360381019061030c9190612301565b610cb7565b005b34801561031e575f80fd5b5061033960048036038101906103349190612351565b610df3565b60405161034792919061238f565b60405180910390f35b34801561035b575f80fd5b50610364610fcf565b005b610380600480360381019061037b9190612301565b611079565b005b34801561038d575f80fd5b506103a860048036038101906103a3919061229b565b6110b2565b005b3480156103b5575f80fd5b506103be6111da565b6040516103cb91906120f8565b60405180910390f35b3480156103df575f80fd5b506103e86111f0565b6040516103f591906122e8565b60405180910390f35b348015610409575f80fd5b50610424600480360381019061041f91906121ee565b611217565b6040516104319190612258565b60405180910390f35b348015610445575f80fd5b50610460600480360381019061045b91906123b6565b61123a565b60405161046d91906122e8565b60405180910390f35b348015610481575f80fd5b5061049c600480360381019061049791906123b6565b611280565b6040516104a991906122e8565b60405180910390f35b3480156104bd575f80fd5b506104c66112cd565b005b3480156104d3575f80fd5b506104dc6112e0565b6040516104e991906122e8565b60405180910390f35b3480156104fd575f80fd5b506105066112e9565b6040516105139190612258565b60405180910390f35b348015610527575f80fd5b50610530611311565b60405161053d919061219b565b60405180910390f35b348015610551575f80fd5b5061055a6113a1565b60405161056791906122e8565b60405180910390f35b34801561057b575f80fd5b506105846113c8565b005b348015610591575f80fd5b506105ac60048036038101906105a7919061240b565b6113ed565b005b6105c860048036038101906105c391906124aa565b611440565b005b3480156105d5575f80fd5b506105f060048036038101906105eb91906121ee565b6114b0565b6040516105fd919061219b565b60405180910390f35b348015610611575f80fd5b5061061a61152a565b60405161062791906122e8565b60405180910390f35b34801561063b575f80fd5b5061064461154e565b60405161065191906122e8565b60405180910390f35b348015610665575f80fd5b50610680600480360381019061067b91906123b6565b611554565b60405161068d919061254c565b60405180910390f35b3480156106a1575f80fd5b506106bc60048036038101906106b79190612565565b611587565b6040516106c991906120f8565b60405180910390f35b3480156106dd575f80fd5b506106f860048036038101906106f391906123b6565b6115a9565b005b5f817bffffffffffffffffffffffffffffffffffffffffffffffffffffffff19167f543746b1000000000000000000000000000000000000000000000000000000007bffffffffffffffffffffffffffffffffffffffffffffffffffffffff191614806107ab57506301ffc9a760e01b7bffffffffffffffffffffffffffffffffffffffffffffffffffffffff1916827bffffffffffffffffffffffffffffffffffffffffffffffffffffffff1916145b806107bb57506107ba8261162b565b5b9050919050565b60605f80546107d0906125d0565b80601f01602080910402602001604051908101604052809291908181526020018280546107fc906125d0565b80156108475780601f1061081e57610100808354040283529160200191610847565b820191905f5260205f20905b81548152906001019060200180831161082a57829003601f168201915b5050505050905090565b5f815f527f7d8825530a5a2e7a000000000000000000000000000000000000000000000000601c5260205f2082018201805460601b60601c61089a5763ceea21b65f526004601cfd5b8060010154915050919050565b6108b23383836116a4565b5050565b5f80600854905060038110156108d8576801158e460913d0000091505061090e565b600381101580156108e95750600681105b156109005768015af1d78b58c4000091505061090e565b6801a055690d9db800009150505b90565b610919611754565b3373ffffffffffffffffffffffffffffffffffffffff163273ffffffffffffffffffffffffffffffffffffffff161461098957336040517f634743490000000000000000000000000000000000000000000000000000000081526004016109809190612258565b60405180910390fd5b600760149054906101000a900460ff166109cf576040517faf7ec2cb00000000000000000000000000000000000000000000000000000000815260040160405180910390fd5b7f0000000000000000000000000000000000000000000000000000000000000000341015610a3457346040517fc801387e000000000000000000000000000000000000000000000000000000008152600401610a2b91906122e8565b60405180910390fd5b6003600a5f3373ffffffffffffffffffffffffffffffffffffffff1673ffffffffffffffffffffffffffffffffffffffff1681526020019081526020015f205410610ab657336040517fd37a4115000000000000000000000000000000000000000000000000000000008152600401610aad9190612258565b60405180910390fd5b60085f815480929190610ac89061262d565b9190505550600a5f3373ffffffffffffffffffffffffffffffffffffffff1673ffffffffffffffffffffffffffffffffffffffff1681526020019081526020015f205f815480929190610b1a9061262d565b91905055507f000000000000000000000000000000000000000000000000000000000000000073ffffffffffffffffffffffffffffffffffffffff16639dc29fac33610b646108b6565b6040518363ffffffff1660e01b8152600401610b8192919061238f565b5f604051808303815f87803b158015610b98575f80fd5b505af1158015610baa573d5f803e3d5ffd5b50505050610bb93360016117a3565b5f7f000000000000000000000000000000000000000000000000000000000000000073ffffffffffffffffffffffffffffffffffffffff1634604051610bfe906126a1565b5f6040518083038185875af1925050503d805f8114610c38576040519150601f19603f3d011682016040523d82523d5f602084013e610c3d565b606091505b5050905080610c78576040517f36f7c66100000000000000000000000000000000000000000000000000000000815260040160405180910390fd5b50610c81611927565b565b5f6003547f0000000000000000000000000000000000000000000000000000000000000000610cb291906126b5565b905090565b610cc2838383611931565b5f1960601c83811693508281169250815f52337f7d8825530a5a2e7a00000000000000000000000000000000000000000000000017601c5260205f208201820180548083168681148102610d2f5780610d225763ceea21b65f526004601cfd5b63a11481005f526004601cfd5b85610d415763ea553b345f526004601cfd5b865f52826001015480331488331417610d6c576030600c2054610d6b57634b6e7f185f526004601cfd5b5b8015610d79575f84600101555b5085871882188355601c600c206001815403815550855f52601c600c20600181540163ffffffff8116610db3576301336cea5f526004601cfd5b80825550508486887fddf252ad1be2c89b69c2b068fc378daa952ba7f163c4a11628f55a4df523b3ef5f80a450505050610dee838383611936565b505050565b5f805f60055f8681526020019081526020015f206040518060400160405290815f82015f9054906101000a900473ffffffffffffffffffffffffffffffffffffffff1673ffffffffffffffffffffffffffffffffffffffff1673ffffffffffffffffffffffffffffffffffffffff1681526020015f820160149054906101000a90046bffffffffffffffffffffffff166bffffffffffffffffffffffff166bffffffffffffffffffffffff168152505090505f73ffffffffffffffffffffffffffffffffffffffff16815f015173ffffffffffffffffffffffffffffffffffffffff1603610f7c5760046040518060400160405290815f82015f9054906101000a900473ffffffffffffffffffffffffffffffffffffffff1673ffffffffffffffffffffffffffffffffffffffff1673ffffffffffffffffffffffffffffffffffffffff1681526020015f820160149054906101000a90046bffffffffffffffffffffffff166bffffffffffffffffffffffff166bffffffffffffffffffffffff168152505090505b5f610f8561193b565b6bffffffffffffffffffffffff1682602001516bffffffffffffffffffffffff1686610fb191906126e8565b610fbb9190612756565b9050815f0151819350935050509250929050565b610fd7611944565b5f3373ffffffffffffffffffffffffffffffffffffffff1647604051610ffc906126a1565b5f6040518083038185875af1925050503d805f8114611036576040519150601f19603f3d011682016040523d82523d5f602084013e61103b565b606091505b5050905080611076576040517f36f7c66100000000000000000000000000000000000000000000000000000000815260040160405180910390fd5b50565b611084838383610cb7565b61108d826119c2565b156110ad576110ac83838360405180602001604052805f8152506119cc565b5b505050565b7f000000000000000000000000000000000000000000000000000000000000000073ffffffffffffffffffffffffffffffffffffffff163373ffffffffffffffffffffffffffffffffffffffff1614611137576040517f78d99f3a00000000000000000000000000000000000000000000000000000000815260040160405180910390fd5b3073ffffffffffffffffffffffffffffffffffffffff167f000000000000000000000000000000000000000000000000000000000000000073ffffffffffffffffffffffffffffffffffffffff168373ffffffffffffffffffffffffffffffffffffffff167fda4c370e4f539b8e19d66144cad73d70fbf440a544e56ff38e28e38ed47801a88460016040516111ce9291906127c8565b60405180910390a45050565b5f600760149054906101000a900460ff16905090565b5f7f0000000000000000000000000000000000000000000000000000000000000000905090565b5f61122182611a59565b9050806112355763ceea21b65f526004601cfd5b919050565b5f600a5f8373ffffffffffffffffffffffffffffffffffffffff1673ffffffffffffffffffffffffffffffffffffffff1681526020019081526020015f20549050919050565b5f8161129357638f4eb6045f526004601cfd5b7f7d8825530a5a2e7a000000000000000000000000000000000000000000000000601c52815f5263ffffffff601c600c2054169050919050565b6112d5611944565b6112de5f611a97565b565b5f600854905090565b5f60075f9054906101000a900473ffffffffffffffffffffffffffffffffffffffff16905090565b606060018054611320906125d0565b80601f016020809104026020016040519081016040528092919081815260200182805461134c906125d0565b80156113975780601f1061136e57610100808354040283529160200191611397565b820191905f5260205f20905b81548152906001019060200180831161137a57829003601f168201915b5050505050905090565b5f7f0000000000000000000000000000000000000000000000000000000000000000905090565b6113d0611944565b6001600760146101000a81548160ff021916908315150217905550565b801515905081601c52670a5a2e7a00000000600852335f52806030600c2055805f528160601b60601c337f17307eab39ab6107e8899845ad3d59bd9653f200f220920489ca2b5937696c3160205fa35050565b61144b858585610cb7565b611454846119c2565b156114a9576114a885858585858080601f0160208091040260200160405190810160405280939291908181526020018383808284375f81840152601f19601f820116905080830192505050505050506119cc565b5b5050505050565b606060085482106114f857816040517f09025b140000000000000000000000000000000000000000000000000000000081526004016114ef91906122e8565b60405180910390fd5b600961150383611b5a565b6040516020016115149291906128bb565b6040516020818303038152906040529050919050565b7f000000000000000000000000000000000000000000000000000000000000000081565b60035481565b5f60c061156083611c24565b7bffffffffffffffffffffffffffffffffffffffffffffffffffffffff16901c9050919050565b5f81601c52670a5a2e7a00000000600852825f526030600c2054905092915050565b6115b1611944565b5f73ffffffffffffffffffffffffffffffffffffffff168173ffffffffffffffffffffffffffffffffffffffff160361161f576040517f08c379a00000000000000000000000000000000000000000000000000000000081526004016116169061294e565b60405180910390fd5b61162881611a97565b50565b5f7f2a55205a000000000000000000000000000000000000000000000000000000007bffffffffffffffffffffffffffffffffffffffffffffffffffffffff1916827bffffffffffffffffffffffffffffffffffffffffffffffffffffffff1916148061169d575061169c82611c5c565b5b9050919050565b5f1960601c82811692508381169350815f52837f7d8825530a5a2e7a00000000000000000000000000000000000000000000000017601c5260205f208201820180548216806116fa5763ceea21b65f526004601cfd5b80861486151761171f57805f526030600c205461171e57634b6e7f185f526004601cfd5b5b8482600101558385827f8c5be1e5ebec7d5bd14f71427d1e84f3dd0314c0f7b2291e5b200ac8c7c3b9255f80a4505050505050565b600260065403611799576040517f08c379a0000000000000000000000000000000000000000000000000000000008152600401611790906129b6565b60405180910390fd5b6002600681905550565b3273ffffffffffffffffffffffffffffffffffffffff163373ffffffffffffffffffffffffffffffffffffffff1614611808576040517fd9d552c900000000000000000000000000000000000000000000000000000000815260040160405180910390fd5b5f8103611841576040517f4600cfe900000000000000000000000000000000000000000000000000000000815260040160405180910390fd5b80600354101561187d576040517f7775abdd00000000000000000000000000000000000000000000000000000000815260040160405180910390fd5b5f6040518060200160405280424460405160200161189c9291906129f4565b604051602081830303815290604052805190602001205f1c81525090505f60035490505f5b8381101561190f575f6118dd8385611cc590919063ffffffff16565b90505f6118ea8285611cee565b90506118f68782611d8b565b8361190090612a1f565b935082600101925050506118c1565b5061191a8484611e5f565b8060038190555050505050565b6001600681905550565b505050565b505050565b5f612710905090565b61194c611ebd565b73ffffffffffffffffffffffffffffffffffffffff1661196a6112e9565b73ffffffffffffffffffffffffffffffffffffffff16146119c0576040517f08c379a00000000000000000000000000000000000000000000000000000000081526004016119b790612a90565b60405180910390fd5b565b5f813b9050919050565b60405163150b7a028082523360208301528560601b60601c604083015283606083015260808083015282518060a08401528015611a13578060c08401826020870160045afa505b60208360a48301601c86015f8a5af1611a38573d15611a34573d5f803e3d5ffd5b5f83525b8160e01b835114611a505763d1a57ed65f526004601cfd5b50505050505050565b5f815f527f7d8825530a5a2e7a000000000000000000000000000000000000000000000000601c5260205f20820182015460601b60601c9050919050565b5f60075f9054906101000a900473ffffffffffffffffffffffffffffffffffffffff1690508160075f6101000a81548173ffffffffffffffffffffffffffffffffffffffff021916908373ffffffffffffffffffffffffffffffffffffffff1602179055508173ffffffffffffffffffffffffffffffffffffffff168173ffffffffffffffffffffffffffffffffffffffff167f8be0079c531659141344cd1fd0a4f28419497f9722a3daafe3b4186f6b6457e060405160405180910390a35050565b60605f6001611b6884611ec4565b0190505f8167ffffffffffffffff811115611b8657611b85612aae565b5b6040519080825280601f01601f191660200182016040528015611bb85781602001600182028036833780820191505090505b5090505f82602001820190505b600115611c19578080600190039150507f3031323334353637383961626364656600000000000000000000000000000000600a86061a8153600a8581611c0e57611c0d612729565b5b0494505f8503611bc5575b819350505050919050565b5f7f7d8825530a5a2e7a000000000000000000000000000000000000000000000000601c52815f52601c600c205460201c9050919050565b5f7f01ffc9a7000000000000000000000000000000000000000000000000000000007bffffffffffffffffffffffffffffffffffffffffffffffffffffffff1916827bffffffffffffffffffffffffffffffffffffffffffffffffffffffff1916149050919050565b5f5b600115611ce35760208320905080835281825f03068110611cc7575b818106905092915050565b5f8060025f8581526020019081526020015f205490505f600184611d1291906126b5565b90505f60025f8381526020019081526020015f205490505f8314611d365782611d38565b855b9350818614611d66575f8114611d4e5780611d50565b815b60025f8881526020019081526020015f20819055505b5f8114611d825760025f8381526020019081526020015f205f90555b50505092915050565b611d965f8383611931565b8160601b60601c915081611db15763ea553b345f526004601cfd5b805f527f7d8825530a5a2e7a000000000000000000000000000000000000000000000000601c5260205f208101810180548060601b15611df85763c991cbb15f526004601cfd5b8381178255835f52601c600c20600181540163ffffffff8116611e22576301336cea5f526004601cfd5b808255505082845f7fddf252ad1be2c89b69c2b068fc378daa952ba7f163c4a11628f55a4df523b3ef5f80a45050611e5b5f8383611936565b5050565b5f611e6983611554565b90505f8282611e789190612adb565b90505f611e8485611c24565b9050611eb6858277ffffffffffffffffffffffffffffffffffffffffffffffff1660c08563ffffffff16901b17612015565b5050505050565b5f33905090565b5f805f90507a184f03e93ff9f4daa797ed6e38ed64bf6a1f0100000000000000008310611f20577a184f03e93ff9f4daa797ed6e38ed64bf6a1f0100000000000000008381611f1657611f15612729565b5b0492506040810190505b6d04ee2d6d415b85acef81000000008310611f5d576d04ee2d6d415b85acef81000000008381611f5357611f52612729565b5b0492506020810190505b662386f26fc100008310611f8c57662386f26fc100008381611f8257611f81612729565b5b0492506010810190505b6305f5e1008310611fb5576305f5e1008381611fab57611faa612729565b5b0492506008810190505b6127108310611fda576127108381611fd057611fcf612729565b5b0492506004810190505b60648310611ffd5760648381611ff357611ff2612729565b5b0492506002810190505b600a831061200c576001810190505b80915050919050565b7f7d8825530a5a2e7a000000000000000000000000000000000000000000000000601c52815f52601c600c2080548060201c831860201b8118825550505050565b5f80fd5b5f80fd5b5f7fffffffff0000000000000000000000000000000000000000000000000000000082169050919050565b6120928161205e565b811461209c575f80fd5b50565b5f813590506120ad81612089565b92915050565b5f602082840312156120c8576120c7612056565b5b5f6120d58482850161209f565b91505092915050565b5f8115159050919050565b6120f2816120de565b82525050565b5f60208201905061210b5f8301846120e9565b92915050565b5f81519050919050565b5f82825260208201905092915050565b5f5b8381101561214857808201518184015260208101905061212d565b5f8484015250505050565b5f601f19601f8301169050919050565b5f61216d82612111565b612177818561211b565b935061218781856020860161212b565b61219081612153565b840191505092915050565b5f6020820190508181035f8301526121b38184612163565b905092915050565b5f819050919050565b6121cd816121bb565b81146121d7575f80fd5b50565b5f813590506121e8816121c4565b92915050565b5f6020828403121561220357612202612056565b5b5f612210848285016121da565b91505092915050565b5f73ffffffffffffffffffffffffffffffffffffffff82169050919050565b5f61224282612219565b9050919050565b61225281612238565b82525050565b5f60208201905061226b5f830184612249565b92915050565b61227a81612238565b8114612284575f80fd5b50565b5f8135905061229581612271565b92915050565b5f80604083850312156122b1576122b0612056565b5b5f6122be85828601612287565b92505060206122cf858286016121da565b9150509250929050565b6122e2816121bb565b82525050565b5f6020820190506122fb5f8301846122d9565b92915050565b5f805f6060848603121561231857612317612056565b5b5f61232586828701612287565b935050602061233686828701612287565b9250506040612347868287016121da565b9150509250925092565b5f806040838503121561236757612366612056565b5b5f612374858286016121da565b9250506020612385858286016121da565b9150509250929050565b5f6040820190506123a25f830185612249565b6123af60208301846122d9565b9392505050565b5f602082840312156123cb576123ca612056565b5b5f6123d884828501612287565b91505092915050565b6123ea816120de565b81146123f4575f80fd5b50565b5f81359050612405816123e1565b92915050565b5f806040838503121561242157612420612056565b5b5f61242e85828601612287565b925050602061243f858286016123f7565b9150509250929050565b5f80fd5b5f80fd5b5f80fd5b5f8083601f84011261246a57612469612449565b5b8235905067ffffffffffffffff8111156124875761248661244d565b5b6020830191508360018202830111156124a3576124a2612451565b5b9250929050565b5f805f805f608086880312156124c3576124c2612056565b5b5f6124d088828901612287565b95505060206124e188828901612287565b94505060406124f2888289016121da565b935050606086013567ffffffffffffffff8111156125135761251261205a565b5b61251f88828901612455565b92509250509295509295909350565b5f63ffffffff82169050919050565b6125468161252e565b82525050565b5f60208201905061255f5f83018461253d565b92915050565b5f806040838503121561257b5761257a612056565b5b5f61258885828601612287565b925050602061259985828601612287565b9150509250929050565b7f4e487b71000000000000000000000000000000000000000000000000000000005f52602260045260245ffd5b5f60028204905060018216806125e757607f821691505b6020821081036125fa576125f96125a3565b5b50919050565b7f4e487b71000000000000000000000000000000000000000000000000000000005f52601160045260245ffd5b5f612637826121bb565b91507fffffffffffffffffffffffffffffffffffffffffffffffffffffffffffffffff820361266957612668612600565b5b600182019050919050565b5f81905092915050565b50565b5f61268c5f83612674565b91506126978261267e565b5f82019050919050565b5f6126ab82612681565b9150819050919050565b5f6126bf826121bb565b91506126ca836121bb565b92508282039050818111156126e2576126e1612600565b5b92915050565b5f6126f2826121bb565b91506126fd836121bb565b925082820261270b816121bb565b9150828204841483151761272257612721612600565b5b5092915050565b7f4e487b71000000000000000000000000000000000000000000000000000000005f52601260045260245ffd5b5f612760826121bb565b915061276b836121bb565b92508261277b5761277a612729565b5b828204905092915050565b5f819050919050565b5f819050919050565b5f6127b26127ad6127a884612786565b61278f565b6121bb565b9050919050565b6127c281612798565b82525050565b5f6040820190506127db5f8301856122d9565b6127e860208301846127b9565b9392505050565b5f81905092915050565b5f819050815f5260205f209050919050565b5f8154612817816125d0565b61282181866127ef565b9450600182165f811461283b576001811461285057612882565b60ff1983168652811515820286019350612882565b612859856127f9565b5f5b8381101561287a5781548189015260018201915060208101905061285b565b838801955050505b50505092915050565b5f61289582612111565b61289f81856127ef565b93506128af81856020860161212b565b80840191505092915050565b5f6128c6828561280b565b91506128d2828461288b565b91508190509392505050565b7f4f776e61626c653a206e6577206f776e657220697320746865207a65726f20615f8201527f6464726573730000000000000000000000000000000000000000000000000000602082015250565b5f61293860268361211b565b9150612943826128de565b604082019050919050565b5f6020820190508181035f8301526129658161292c565b9050919050565b7f5265656e7472616e637947756172643a207265656e7472616e742063616c6c005f82015250565b5f6129a0601f8361211b565b91506129ab8261296c565b602082019050919050565b5f6020820190508181035f8301526129cd81612994565b9050919050565b5f819050919050565b6129ee6129e9826121bb565b6129d4565b82525050565b5f6129ff82856129dd565b602082019150612a0f82846129dd565b6020820191508190509392505050565b5f612a29826121bb565b91505f8203612a3b57612a3a612600565b5b600182039050919050565b7f4f776e61626c653a2063616c6c6572206973206e6f7420746865206f776e65725f82015250565b5f612a7a60208361211b565b9150612a8582612a46565b602082019050919050565b5f6020820190508181035f830152612aa781612a6e565b9050919050565b7f4e487b71000000000000000000000000000000000000000000000000000000005f52604160045260245ffd5b5f612ae58261252e565b9150612af08361252e565b9250828201905063ffffffff811115612b0c57612b0b612600565b5b9291505056fea26469706673582212204fb0b4f2459410989ff33527f7185ce55fb8da09edff86a9f8882fb649def16d64736f6c63430008140033",
  "linkReferences": {},
  "deployedLinkReferences": {}
}